:020000040800F2
:10000000500A00200D0200085D1D0008FD1A0008BE
:10001000591D0008B1030008133400080000000057
:100020000000000000000000000000003132000865
:10003000BD04000800000000611D00083332000804
:1000400027020008270200082702000827020008EC
:1000500027020008270200082702000827020008DC
:1000600027020008270200082702000827020008CC
:1000700027020008270200082702000827020008BC
:1000800027020008270200082702000827020008AC
:10009000270200082702000827020008270200089C
:1000A000270200082702000827020008270200088C
:1000B000270200082702000827020008270200087C
:1000C000270200082702000827020008270200086C
:1000D000270200082702000827020008270200085C
:1000E000270200082702000827020008270200084C
:1000F000270200082702000827020008270200083C
:10010000270200082702000827020008270200082B
:10011000270200082702000827020008270200081B
:10012000270200082702000827020008270200080B
:1001300000F002F800F05AF80AA090E8000C82449F
:100140008344AAF10107DA4501D100F04FF8AFF27C
:10015000090EBAE80F0013F0010F18BFFB1A43F0A5
:1001600001031847CC4C0000EC4C00000A444FF04F
:10017000000C10F8013B13F0070408BF10F8014B06
:100180001D1108BF10F8015B641E05D010F8016B4B
:10019000641E01F8016BF9D113F0080F1EBF10F8AF
:1001A000014BAD1C0C1B09D16D1E58BF01F801CBD2
:1001B000FAD505E014F8016B01F8016B6D1EF9D555
:1001C0009142D6D37047000000230024002500266A
:1001D000103A28BF78C1FBD8520728BF30C148BFAA
:1001E0000B6070471FB51FBD10B510BD00F058F86B
:1001F0001146FFF7F7FF03F053FC00F076F803B465
:10020000FFF7F2FF03BC00F07DF8000009488047CB
:1002100009480047FEE7FEE7FEE7FEE7FEE7FEE7E8
:10022000FEE7FEE7FEE7FEE704480549054A064B00
:1002300070470000C132000831010008500400205E
:10024000500A002050060020500600204FF0000207
:1002500000B5134694469646203922BFA0E80C50BC
:10026000A0E80C50B1F12001BFF4F7AF090728BF97
:10027000A0E80C5048BF0CC05DF804EB890028BF13
:1002800040F8042B08BF704748BF20F8022B11F03C
:10029000804F18BF00F8012B7047704770477047B8
:1002A000754600F02BF8AE4605006946534620F02F
:1002B0000700854618B020B5FFF7B6FFBDE820401F
:1002C0004FF000064FF000074FF000084FF0000B12
:1002D00021F00701AC46ACE8C009ACE8C009ACE8C5
:1002E000C009ACE8C0098D46704710B50446AFF3AD
:1002F00000802046BDE81040FFF781BF00487047EE
:10030000F003002001491820ABBEFEE726000200E2
:10031000704700001CB50446002269461F4801F0E2
:100320004CF8002201A91D4801F01EF81C4850F8A5
:1003300024001C49097801EB81011B4A02EB810171
:1003400048601A4850F824001649097801EB8101E9
:1003500002EB810188601348007800EB80001146B1
:1003600001EB80000199C0F80F100E48007800EBF7
:100370008000114601EB8000BDF8001081819DF8DE
:100380000210817307480078401C0649087008462F
:100390000078092801DD002008701CBD080300203A
:1003A000100100203001002028030020200100203F
:1003B00000BFFEE710B54FF48071374800F080FAB7
:1003C00028B10020354908703549087013E03348DA
:1003D0000078401CC0B231490870012804D130496E
:1003E00008700220FFF796FF2C480078022802DDF3
:1003F00002202A4908704FF40071274800F060FA83
:1004000028B10020274908702749087013E02548C3
:100410000078401CC0B223490870012804D1224949
:1004200008700320FFF776FF1E480078022802DDDF
:1004300002201C4908704FF48051174800F040FA20
:1004400090B10020194908701948007828B101209E
:1004500018490870FFF75EFF02E000201549087098
:1004600000201349087016E010480078401CC0B204
:100470000E490870012801D10D4908700B48007819
:100480000F2808DD0120094908700020084908707C
:1004900001200949087010BD00080140AD0200208C
:1004A000A8020020AE020020A9020020AF02002016
:1004B000AB020020AA020020AC020020704772B6F6
:1004C00000BFFEE70CB500208DF806008DF8050092
:1004D0008DF804008DF807008DF800008DF80100FC
:1004E0008DF8020000BF28E0002100EB8002164BCF
:1004F00003F822101549096800EB800203EB820221
:1005000051601349096800EB800203EB820291609D
:1005100000EB80011A4602EB8101019AC1F80F201D
:1005200000EB80011A4602EB8101BDF800208A81B0
:100530009DF802208A73411CC8B20A28D4DB00202F
:10054000044908700CBD00002803002010010020A1
:10055000200100203001002070B5044600F0C8F9E9
:1005600006462546681C10B104480078054400BFC3
:1005700000F0BEF9801BA842FAD370BDB80200207B
:100580002DE9F847024600239C467BE14FF0010825
:1005900008FA03F4D1F8008008EA0400A0427DD1F3
:1005A000DFF8F4A2D1F80480A8EB0A09D0453AD0CC
:1005B00014DCB8F1030F50D009DCB8F1000F31D0D2
:1005C000B8F1010F1CD0B8F1020F49D120E0B8F109
:1005D000110F18D0B8F1120F42D11EE0B9F5881FE3
:1005E00025D006DCB9F5803F20D0B9F5801F37D182
:1005F0001AE0B9F5001F18D0B9F5041F30D117E083
:10060000D1F80CC02DE0D1F80C8008F1040C28E0E2
:10061000D1F80C8008F1080C23E0D1F80C8008F127
:100620000C0C1EE000BF00BF00BF00BF00BF00BF3A
:10063000D1F80880B8F1000F02D14FF0040C0BE0A4
:10064000D1F80880B8F1010F03D14FF0080C146104
:1006500002E04FF0080C546103E04FF0000C00E0A2
:1006600000BF00BFFF2801D8904601E002F1040856
:100670004646FF2802D84FEA830803E0A3F10808A2
:100680004FEA88084746D6F800804FF00F0909FA6C
:1006900007F928EA09080CFA07F900E07AE048EAC5
:1006A0000908C6F80080D1F8048008F08058B8F135
:1006B000805F6FD100BFDFF8E481D8F8188048F080
:1006C0000108DFF8D891C9F81880C846D8F8188012
:1006D00008F00108CDF8008000BF00BF4FEAB9382C
:1006E0004FEA930958F829504FEA83784FEA18796E
:1006F0004FF00F0808FA09F825EA0805DFF8A0818D
:10070000424502D14FF0000824E0DFF898814245CD
:1007100002D14FF001081DE0DFF88C81424502D183
:100720004FF0020816E0DFF88481424502D14FF015
:1007300003080FE0DFF87881424502D14FF004084A
:1007400008E0DFF87081424502D14FF0050801E072
:100750004FF006084FEA83794FEA197908FA09F849
:1007600048EA0505DFF850814FEA930948F8295017
:10077000D1F8048008F48018B8F5801F0BD1DFF899
:100780003C81D8F8008048EA0008DFF83091C9F8C9
:1007900000800AE075E0DFF82481D8F8008028EABC
:1007A0000008DFF81891C9F80080D1F8048008F437
:1007B0000018B8F5001F0ED1DFF8008108F1040819
:1007C000D8F8008048EA0008DFF8F09009F1040941
:1007D000C9F800800DE0DFF8E48008F10408D8F8DB
:1007E000008028EA0008DFF8D49009F10409C9F86C
:1007F0000080D1F8048008F40038B8F5003F0ED12D
:10080000DFF8B880A8F10408D8F8008048EA0008AA
:10081000DFF8A890A9F10409C9F800800DE0DFF81D
:100820009C80A8F10408D8F8008028EA0008DFF8C6
:100830008C90A9F10409C9F80080D1F8048008F46B
:100840008038B8F5803F0ED1DFF87080A8F1080835
:10085000D8F8008048EA0008DFF86090A9F108099C
:10086000C9F800800DE0DFF85480A8F10808D8F836
:10087000008028EA0008DFF84490A9F10809C9F8C7
:1008800000805B1CD1F8008028FA03F8B8F1000F53
:100890007FF47CAEBDE8F887000011100010024024
:1008A00000080140000C014000100140001401400C
:1008B00000180140001C01400800014008040140EC
:1008C000024693680B400BB1012000E00020704706
:1008D00010B5C26821EA020302EA010443EA0443B4
:1008E000036110BD0AB1016101E00B0403617047AF
:1008F0000148006870470000B0020020034800680B
:10090000034909780844014908607047B002002093
:10091000B802002010B50848006840F010000649F1
:100920000860032000F098F80F2000F007F800F0AE
:100930002BF8002010BD00000020024070B50446D6
:100940000E4800784FF47A71B1FBF0F00C49096859
:10095000B1FBF0F5284600F03DFF08B1012070BD65
:10096000102C07D200222146501E00F037F805480F
:10097000046001E00120F2E70020F0E7B802002067
:10098000BC020020B402002008B500BF11488069F5
:1009900040F001000F4988610846806900F00100BD
:1009A000009000BF00BF00BF0846C06940F0805003
:1009B000C8610846C06900F08050009000BF00BFC9
:1009C00000BF0549486820F0E06000BF486000BFF4
:1009D00008BD000000100240000001402DE9F05F5A
:1009E00080460D461646002703F03EF80746394676
:1009F0002A46334601F00700C0F1070ABAF1040F96
:100A000002D94FF0040A01E0C0F1070AD14600F113
:100A1000040ABAF1070F02D24FF0000A01E0A0F178
:100A2000030AD4464FF0010A0AFA09FAAAF1010AA8
:100A30000AEA020A0AFA0CFA4FF0010B0BFA0CFB55
:100A4000ABF1010B0BEA030B4AEA0B0421464046CB
:100A500003F012F8BDE8F09F00BF00F00702064B5C
:100A600019684FF6FF031940044B0B4343EA022178
:100A7000014B196000BF70470CED00E00000FA0563
:100A8000012001490862704700000E422DE9F0473D
:100A900006464FF00008002500270024A146042E3A
:100AA00037D004DC012E3CD0022E6CD160E0082E41
:100AB00033D0102E67D136484468006800F080704B
:100AC00008B33448C4F38341475C04F4803078B100
:100AD0002F484068C0F340402F4911F8008004F4CB
:100AE000803040B12D48B0FBF8F000FB07F502E084
:100AF0002B4807FB00F52648406800F48000B0F55D
:100B0000800F01D1A94603E068000321B0FBF1F991
:100B10003AE000F0BDF9814636E000F0B9F98146CF
:100B200032E01B48046A04F44070B0F5807F05D1C0
:100B300004F0020010B14FF4004918E004F44070D2
:100B4000B0F5007F07D11248406A00F0020010B1F2
:100B500049F640490BE004F44070B0F5407F06D1FF
:100B60000B48006800F4003008B1DFF838900BE063
:100B700000F07EF906494968C1F38131491C4900FA
:100B8000B0FBF1F900E000BF00BF4846BDE8F087C8
:100B900000100240CF4C0008DF4C0008001BB700DB
:100BA00000093D00366E0100F8B504460026002518
:100BB000207800F0010000286BD000274348C0696E
:100BC00000F0805070B900BF4048C06940F08050CC
:100BD0003E49C8610846C06900F08050009000BFDF
:100BE00000BF01273A48006800F48070B0B9384867
:100BF000006840F4807036490860FFF779FE0646C9
:100C000006E0FFF775FE801B642801D90320F8BDBC
:100C10002F48006800F480700028F2D02B48006A4A
:100C200000F440752DB3A08800F44070A84220D095
:100C30002648006A20F440750120264908600020FB
:100C400008602248056205F0010090B1FFF750FEF0
:100C5000064608E0FFF74CFE801B41F288318842CF
:100C600001D90320D3E71948006A00F002000028E8
:100C7000F0D01648006A20F44070616808431349B8
:100C80000862012F04D10846C06920F08050C86175
:100C900000BF207800F00200022807D10B4840680E
:100CA00020F44040A168084308494860207800F0DB
:100CB0001000102807D10548406820F480006169C1
:100CC0000843024948600020A1E7000000100240EC
:100CD000007000404004424270B504460D460CB915
:100CE000012070BD5A48006800F00700A8420ED2EB
:100CF0005748006820F00700284355490860084617
:100D0000006800F00700A84201D00120E9E7207840
:100D100000F0020002281DD1207800F00400042811
:100D200005D14C48406840F4E0604A49486020786A
:100D300000F00800082805D14648406840F460509B
:100D4000444948604348406820F0F000A1680843E7
:100D500040494860207800F0010078B360680128BD
:100D600006D13C48006800F4003090B90120B8E793
:100D70006068022806D13748006800F0007040B96A
:100D80000120AEE73348006800F0020008B90120F6
:100D9000A7E73048406820F00300616808432D4908
:100DA0004860FFF7A5FD064609E0FFF7A1FD801B9F
:100DB00041F28831884202D9032092E707E02548B2
:100DC000406800F00C006168B0EB810FEDD1204865
:100DD000006800F00700A8420ED91D48006820F006
:100DE000070028431A4908600846006800F0070019
:100DF000A84201D0012074E7207800F00400042804
:100E000007D11448406820F4E060E16808431149C4
:100E10004860207800F00800082808D10D48406894
:100E200020F46050216940EAC1000A49486000F09E
:100E30002FF808494968C1F30311074A515CC840BB
:100E40000649086006480068FFF778FD002048E77B
:100E50000020024000100240E14C0008BC020020CB
:100E6000B40200200148006870470000BC02002066
:100E700000B5FFF7F7FF04494968C1F3C221034AEF
:100E8000515CC84000BD000000100240F14C000859
:100E900070B500210022002400230020134D696852
:100EA00001F00C05F5B1042D02D0082D19D101E097
:100EB0000F4819E00F4DC1F38346AB5D01F4803557
:100EC00055B10A4D6D68C5F340450B4E725D084D36
:100ED0005D43B5FBF2F402E0084D03FB05F4204648
:100EE00002E000BF064800BF00BF70BD0010024016
:100EF000001BB700BD4C0008CD4C000800093D00A8
:100F000000127A00F8B504460CB90120F8BD20782B
:100F100000F00100002878D0F848406800F00C008C
:100F200004280CD0F548406800F00C00082811D1C6
:100F3000F248406800F48030B0F5803F0AD1EF48B5
:100F4000006800F4003000285FD0606800285CD1A1
:100F50000120DBE700BF6068B0F5803F06D1E748BD
:100F6000006840F48030E549086028E0606858B9BE
:100F7000E248006820F48030E049086008460068D4
:100F800020F4802008601AE06068B0F5A02F0BD133
:100F9000DA48006840F48020D849086008460068B4
:100FA00040F4803008600AE0D448006820F48030C3
:100FB000D24908600846006820F48020086000BF1D
:100FC000606888B1FFF794FC054606E0FFF790FCE7
:100FD000401B642801D9032098E7C848006800F442
:100FE00000300028F2D010E0FFF782FC054606E052
:100FF000FFF77EFC401B642801D9032086E7BF4829
:10100000006800F400300028F2D1207800F00200DF
:10101000022857D1B948406800F00C0050B1B748D9
:10102000406800F00C00082818D1B448406800F46B
:10103000803098B9B148006800F0020020B1206902
:10104000012801D0012061E7AC48006820F0F800D9
:10105000616940EAC100A949086033E02069E8B14C
:101060000120A7490860FFF743FC054606E0FFF7AB
:101070003FFC401B022801D9032047E79F48006836
:1010800000F002000028F2D09C48006820F0F80030
:10109000616940EAC1009949086013E0002098495D
:1010A0000860FFF725FC054606E0FFF721FC401B22
:1010B000022801D9032029E79048006800F00200C7
:1010C0000028F2D1207800F0080008282DD1A0696E
:1010D000B8B101208B490860FFF70AFC054606E01D
:1010E000FFF706FC401B022801D903200EE78348C6
:1010F000406A00F002000028F2D0012001F028FF31
:1011000013E000207F490860FFF7F2FB054606E088
:10111000FFF7EEFB401B022801D90320F6E67748D3
:10112000406A00F002000028F2D1207800F00400AC
:10113000042873D100277148C06900F0805070B94D
:1011400000BF6E48C06940F080506C49C8610846D5
:10115000C06900F08050009000BF00BF01276A48BE
:10116000006800F48070B0B96748006840F480708F
:1011700065490860FFF7BCFB054606E0FFF7B8FBD2
:10118000401B642801D90320C0E65F48006800F4D2
:1011900080700028F2D000BFE068012806D15748CF
:1011A000006A40F001005549086227E0E06858B93C
:1011B0005248006A20F00100504908620846006A5F
:1011C00020F00400086219E0E06805280BD14B48C4
:1011D000006A40F00400494908620846006A40F08D
:1011E000010008620AE04548006A20F00100434916
:1011F00008620846006A20F00400086200BFE06848
:10120000A0B1FFF775FB054609E0FFF771FB401B36
:1012100041F28831884202D9032077E622E037483C
:10122000006A00F002000028EFD012E0FFF760FB38
:10123000054608E0FFF75CFB401B41F2883188421D
:1012400001D9032062E62D48006A00F00200002860
:10125000F0D1012F05D12948C06920F080502749DD
:10126000C86100BFE069C8B32448406800F00C00C2
:10127000082860D0E069022848D10020204908668B
:10128000FFF736FB054606E0FFF732FB401B02285E
:1012900001D903203AE61948006800F000700028E0
:1012A000F2D1206AB0F5803F07D11448406820F49D
:1012B0000030A168084311494860D4E90801084397
:1012C0000E49496821F4741108430C494860012013
:1012D0000B490866FFF70CFB054607E03DE0FFF70A
:1012E00007FB401B022801D903200FE603480068D2
:1012F00000F000700028F2D02FE000000010024043
:101300000000424280044242007000400020144924
:101310000866FFF7EDFA054606E0FFF7E9FA401B1D
:10132000022801D90320F1E50E48006800F00070A2
:101330000028F2D111E0E069012800D1E6E5094872
:10134000466806F48031206A814204D106F47011A7
:10135000606A814201D00120D8E50020D6E5000076
:101360000000424200100240F8B505460C46164601
:101370000020009005B10CB90120F8BD002269469B
:10138000284600F01AF808B10120F6E7287B207003
:10139000E87BE070687B6070A87BA0705EB1E0784D
:1013A00001F0F5FDE070607801F0F1FD6070A0786B
:1013B00001F0EDFDA0700020DFE72DE9F047804649
:1013C0000C46914600250026AA460027B8F1000FDA
:1013D00000D014B90120BDE8F087D8F800004068BB
:1013E000C0F3800008B10120F5E7404601F096FE09
:1013F00005464FF46160B5FBF0F7B5FBF0F100FB7B
:1014000011503C21B0FBF1F060704FF46160B5FB0E
:10141000F0F100FB11503C21B0FBF1F201FB120096
:10142000A070182F39D31820B7FBF0FAB7FBF0F1F2
:1014300000FB11702070404601F064FE0646701CEF
:1014400018B1AE4201D9761B01E04FF0FF360AEB2E
:101450004A00C000C0EB4011C1EB0020A5EB001515
:101460002946404601F0CDFE08B10120B3E7701CCB
:1014700038B12E443146404601F0ACFE40B1012067
:10148000A9E73146404601F0A5FE08B10120A2E7D8
:101490005146404601F088FD00E02770B9F1000F89
:1014A0000BD0207801F073FD2070607801F06FFDA3
:1014B0006070A07801F06BFDA07000208BE7000049
:1014C00070B5044600250CB9012070BD607C20B9C0
:1014D00000202074204600F053F80220607420465B
:1014E00000F058F918B1042060740120EDE720469F
:1014F00001F0B5FD18B1042060740120E5E7206813
:10150000406820F0070021684860A06828B11B48A7
:10151000006820F00100194908601848001F0068A1
:1015200020F46070A16808431449091F08606068CE
:10153000401C08B1656809E00120FFF7A7FA0546DD
:101540001DB9042060740120BFE76D1EC5F3034080
:1015500021688860A8B22168C860204601F09CFD1F
:1015600018B1042060740120AFE70021E17301216C
:101570006173A173012060740020A6E7306C004005
:1015800038B504460B492068884212D1FFF778FA33
:1015900000BF0948C06940F000600749C8610846BB
:1015A000C06900F00060009000BF00BF0120034947
:1015B000086038BD00280040001002403C04424250
:1015C0002DE9F04704460D46904600260027B14617
:1015D00004B115B90120BDE8F08700BF207C0128C7
:1015E00001D10220F7E70120207400BF02206074BF
:1015F000B8F1000F06D1E978E17369786173A978D1
:10160000A1730BE0E87801F0B7FCE073687801F0B3
:10161000B3FC6073A87801F0AFFCA073A27B617B80
:10162000E07B01F095FD2073207B2870204601F0BF
:1016300075FD06464FF46160B6FBF0F9B9F1180F7D
:101640002FD91820B9FBF0F000EB4000C000C0EB30
:101650004011C1EB0020A6EB00163146204601F0F8
:10166000D0FD38B10420607400BF0020207400BF9A
:101670000120B0E7204601F045FD0746781C80B107
:10168000B7420ED20B4807443946204601F0A2FD6E
:1016900038B10420607400BF0020207400BF012016
:1016A00099E70120607400BF0020207400BF00BFD4
:1016B00091E70000805101002DE9F04704460D46F6
:1016C00090460026002704B115B90120BDE8F08737
:1016D00000BF207C012801D10220F7E701202074FF
:1016E00000BF02206074B8F1000F0BD128784FF4CE
:1016F000616148436978C1EB011100EB8100A97871
:10170000461812E0287801F037FC4FF4616100FBC5
:1017100001F9687801F030FCC0EB001009EB80099A
:10172000A87801F029FC09EB00063146204601F0BB
:1017300068FD38B10420607400BF0020207400BF31
:101740000120C3E72068406820F005002168486058
:10175000204601F0D7FC0746781C80B1B7420ED274
:101760000B4807443946204601F034FD38B10420C7
:10177000607400BF0020207400BF0120A6E7012094
:10178000607400BF0020207400BF00BF9EE700000F
:101790008051010070B5044600250CB9012070BDD0
:1017A0002068406820F0080021684860FFF7A0F832
:1017B000054607E0FFF79CF8401BB0F57A7F01D99A
:1017C0000320ECE72068406800F008000028F1D012
:1017D0000020E4E770B504462546681EB0F1807F1E
:1017E00001D301200FE0681E4FF0E02148610F2176
:1017F0004FF0FF3002F040F900204FF0E021886107
:1018000007200861002070BD30B502460B4600BFBE
:1018100092F83C00012801D1022030BD012082F85D
:101820003C0000BF022082F83D0010684468106848
:10183000816824F070041868044310684460184DEF
:101840001068A8421BD0174D1068A84217D0106826
:10185000B0F1804F13D0144D1068A8420FD0134D33
:101860001068A8420BD0124D1068A84207D0114D45
:101870001068A84203D0104D1068A84205D121F08D
:1018800080015868014310688160012082F83D00A2
:1018900000BF002082F83C0000BF00BFBDE7000091
:1018A000002C0140003401400004004000080040CA
:1018B000000C0040004C01400018004010B50446E8
:1018C0000CB9012010BD94F83D0028B9002084F81F
:1018D0003C00204600F026F8022084F83D00211D3F
:1018E000206801F0EFFC012084F8460000BF84F876
:1018F0003E0001213F200155402001554120015566
:1019000000BF00BF012084F842004320015544205D
:1019100001554520015500BF012084F83D000020FD
:10192000D0E7000008B5094A016891420DD100BF17
:101930000749C96941F00401054AD1611146C969E5
:1019400001F00401009100BF00BF08BD0008004085
:1019500000100240014691F83D00012801D001200D
:101960007047022081F83D001A4B086898421BD04E
:10197000194B0868984217D00868B0F1804F13D00F
:10198000164B086898420FD0154B086898420BD048
:10199000144B0868984207D0134B0868984203D04C
:1019A000124B086898420CD10868806800F0070262
:1019B000062A0CD00868006840F001000B68186027
:1019C00005E00868006840F001000B68186000201E
:1019D000C6E70000002C0140003401400004004034
:1019E00000080040000C0040004C0140001800407E
:1019F0002DE9F04104460D46002700BF94F83C0055
:101A0000012802D10220BDE8F081012084F83C00C9
:101A100000BF022084F83D002068866826F0770623
:101A200026F47F46206886602868502833D00CDC76
:101A3000202850D004DC00284BD0102851D149E098
:101A4000302849D040284CD139E060282DD070286A
:101A500007D0B0F5805F03D0B0F5005F41D10DE055
:101A600041E0D5E902136A68206801F097FC20681C
:101A7000866846F077062068866034E0D5E9021370
:101A80006A68206801F08AFC2068806840F4804021
:101A90002168886027E0EA686968206801F092FCA4
:101AA0005021206801F085FC1DE0EA686968206823
:101AB00001F09BFC6021206801F07BFC13E0EA68E8
:101AC0006968206801F07EFC4021206801F071FC0B
:101AD00009E000BF00BF00BF2968206801F069FC71
:101AE00001E0012700BF00BF012084F83D0000BFD6
:101AF000002084F83C0000BF384684E700BFFEE7C2
:101B000010B5002208210248FEF7ECFE10BD0000CF
:101B10000018014010B508210148FEF7D9FE10BD9C
:101B20000018014010B504210148FEF7D1FE10BD98
:101B30000018014000B585B000200190029003908C
:101B4000049000BF4648806940F0400044498861E5
:101B50000846806900F04000009000BF00BF00BF51
:101B60000846806940F0040088610846806900F0FA
:101B70000400009000BF00BF00BF0846806940F02D
:101B8000100088610846806900F01000009000BFD6
:101B900000BF00BF0846806940F020008861084609
:101BA000806900F02000009000BF00BF00BF084621
:101BB000806940F0080088610846806900F00800EC
:101BC000009000BF00BF00222F212648FEF78AFEAA
:101BD00000224FF480512448FEF784FE0022FF21AA
:101BE0002248FEF77FFE2F20019001200290002066
:101BF00003900220049001A91A48FEF7C1FC0122BB
:101C000004211848FEF76EFE012208211548FEF750
:101C100069FE4FF4F85001900020029002200390DA
:101C200001A91348FEF7ACFC4FF48050019001204D
:101C30000290002003900220049001A90A48FEF7B8
:101C40009FFCFF20019001200290002003900220C1
:101C5000049001A90548FEF793FC05B000BD000003
:101C60000010024000180140001001400014014023
:101C7000000801401CB500200190009019481A4945
:101C800008604FF0FF304860002117488160FFF77F
:101C900017FC08B1FEF713FC12208DF80400102089
:101CA0008DF8050000208DF80600012201A90E48DC
:101CB000FFF702FD08B1FEF702FC03208DF80000DB
:101CC00023208DF8020010208DF8010024208DF8CB
:101CD0000300012269460448FFF772FC08B1FEF7D1
:101CE000EEFB1CBD002800400803002000B587B0B3
:101CF00000200390049005900690019002901448F3
:101D0000144908603B2048600021124881604FF66A
:101D1000FF71C160002101618161FFF7CFFD08B152
:101D2000FEF7CDFB4FF48050039003A90948FFF75D
:101D30005FFE08B1FEF7C3FB00200190029001A9ED
:101D40000448FFF761FD08B1FEF7B9FB07B000BD1D
:101D500000080040C002002000BFFEE700BFFEE711
:101D6000704700002DE9F0411B48007800281ED084
:101D700000201949087019A41EA524A629A701F05E
:101D800011FE204601F040FE142001F00BFE284613
:101D900001F03AFE282001F005FE304601F034FE45
:101DA0003C2001F0FFFD384601F02EFE00BF234825
:101DB000007840B1022022490870012006490870CD
:101DC00000201E4908701F48007810B100201D49EE
:101DD0000870BDE8F08100003A010020202020C4F6
:101DE000C5CCCE20EFF0EEE3F0E0ECECE0202020DC
:101DF000000000002020F0E5E0EBE8E7E0F6E8E88E
:101E000020ECE5EDFE202020000000002020EDE089
:101E100020E4E8F1EFEBE5E52032307834202020B3
:101E20000000000020202057696E737461722057F3
:101E3000483230303420202000000000AA02002068
:101E40003B010020AC02002070B5FB480078002860
:101E50005BD001F0E0FA0020F7490870F7490978F3
:101E600001EB81018906080E01F09CFDF4A001F050
:101E7000CBFD002447E0F3480078F0490978401A88
:101E80002044C5B204EB8401012202EB8101C8B2F7
:101E900001F088FDEC4951F82510486801F0B4FDC7
:101EA000E94850F82500C069E84988421AD104EB96
:101EB00084010F2202EB8101C8B201F073FDE4A09E
:101EC00001F0A2FDE04B53F82530196804EB8403C0
:101ED000102606EB8303D8B2DB4B53F82530DA69C2
:101EE00090470EE0D84B53F82530196804EB840373
:101EF0000F2606EB8303D8B2D34B53F82530DA69AB
:101F00009047601CC4B2042CB5DBD248007840B1C5
:101F10000320D14908700120C74908700020CD492D
:101F20000870CE48007840B10020CC4908700520E8
:101F3000C94908700120C0490870C94800780028C4
:101F400071D00020C6490870BE480078401CBD49C9
:101F50000870BA480078401CB849087008460078F4
:101F6000032804DD032008700120BE490870B5482D
:101F70000078BD49097888420CDB0020B14908701F
:101F8000AE490870B74908703C2001F00BFDB0A0C5
:101F900001F03AFDB3480078002859D0A7490978E4
:101FA00001EB81018906080E01F0FCFCA4A001F000
:101FB0002BFD0020AB490870002446E0A1480078C2
:101FC000C01E2044C5B204EB8401012202EB810152
:101FD000C8B201F0E7FC9C4951F82510486801F0AF
:101FE00013FD994850F82500C069984988421BD1D3
:101FF00004EB84010F2202EB8101C8B201F0D2FC94
:1020000093A001F001FD904B53F82530196804EBC3
:102010008403102606EB8303D8B28B4B53F825308C
:10202000DA6990470FE07AE0874B53F8253019685A
:1020300004EB84030F2606EB8303D8B2824B53F8DC
:102040002530DA699047601CC4B2042CB6DB66E028
:102050007A49097801EB81018906080E01F0A2FC9A
:1020600077A001F0D1FC7548007800280BDD73499A
:102070000978491E01EB81018906080E01F092FCE6
:1020800073A001F0C1FC002447E06E4800786B4962
:102090000978401A2044C5B204EB8401012202EB06
:1020A0008101C8B201F07EFC674951F825104868EB
:1020B00001F0AAFC644850F82500C06963498842D1
:1020C0001AD104EB84010F2202EB8101C8B201F0A6
:1020D00069FC5FA001F098FC5B4B53F82530196850
:1020E00004EB8403102606EB8303D8B2564B53F857
:1020F0002530DA6990470EE0534B53F825301968C4
:1021000004EB84030F2606EB8303D8B24E4B53F83F
:102110002530DA699047601CC4B2042CB5DB534803
:102120000078002873D00020504908704548007896
:1021300080B94D480078401E4249087003203F494D
:10214000087000204749087001F02CFC40A001F005
:102150005BFC14E039480078002805DD374800783A
:10216000401E3649087005E00020344908700120FF
:102170003C49087033480078401E3249087039489D
:102180000078002875D02D49097801EB8101890676
:10219000080E01F007FC2AA001F036FC00203149AE
:1021A0000870002445E0274800782044C5B204EBBD
:1021B0008401012202EB8101C8B201F0F3FB224944
:1021C00051F82510486801F01FFC1F4850F8250001
:1021D000C0691E4988421BD104EB84010F2202EB27
:1021E0008101C8B201F0DEFB19A001F00DFC164B15
:1021F00053F82530196804EB8403102606EB83039B
:10220000D8B2114B53F82530DA6990470FE09AE0C5
:102210000D4B53F82530196804EB84030F2606EBA9
:102220008303D8B2084B53F82530DA699047601C15
:10223000C4B2042CB7DB86E03A010020350100204F
:102240003E00000034010020944C0008E5340008F2
:1022500020000000AA0200203B010020AC02002068
:10226000A902002036010020BC4C0008A802002072
:10227000FFE73549097801EB81018906080E01F075
:1022800091FBAFF2440001F0BFFB2F480078032818
:102290000CDA2D490978491C01EB81018906080EE9
:1022A00001F080FBAFF2580001F0AEFB002448E0E3
:1022B0002648007824490978401A2044C5B204EB26
:1022C0008401012202EB8101C8B201F06BFB2049BD
:1022D00051F82510486801F097FB1D4850F825007B
:1022E000C0691C4988421BD104EB84010F2202EB18
:1022F0008101C8B201F056FBAFF2AC0001F084FBE3
:10230000134B53F82530196804EB8403102606EBB1
:102310008303D8B20E4B53F82530DA6990470EE0AC
:102320000B4B53F82530196804EB84030F2606EB9A
:102330008303D8B2064B53F82530DA699047601C06
:10234000C4B2042CB4DB70BD350100203401002080
:10235000944C0008E534000870B5044659480078EC
:10236000002848D001F057F800205649087001F0C5
:1023700019FB554951F82410486801F045FB142019
:1023800001F010FB51A001F03FFB4F4850F8240032
:10239000C1684D4850F82400C269182090471E209B
:1023A00001F000FB4BA001F02FFB474850F8240040
:1023B0000169454850F82400C2692220904728202E
:1023C00001F0F0FA45A001F01FFB3F4850F824004F
:1023D00001683D4850F82400C269362090473C20EF
:1023E00001F0E0FA41A001F00FFB374850F824005B
:1023F00000684249086042480078D8B1002040494E
:102400000870314850F8240041693C48006802F0E7
:1024100039F93A49054608602B4850F8240001690B
:10242000284602F08FFB05D8274850F824000069A1
:102430003249086033480078D8B10020314908702B
:10244000214850F8240041692C48006802F0ACFB98
:102450002A49054608601C4850F82400C1682846EF
:1024600002F070FA05D8184850F82400C0682349D3
:1024700008602548007878B120480068124951F872
:1024800024100860104850F8240001680E4850F8E5
:102490002400C269362090470B4850F82400C269D6
:1024A000164801684A2090471848007840B100203B
:1024B0001649087002201649087001200149087069
:1024C00070BD00003A010020944C00084D696E2058
:1024D000000000004D61782000000000D2E5EAF322
:1024E000F92EE7EDE0F72DE53A200000C8E7ECE52E
:1024F000EDE8F2FC202B2F2D202000003C010020D5
:10250000A8020020A9020020AA020020AC0200209C
:102510003B0100202DE9FF5F45480078002821D0CD
:1025200000F079FF00204249087001F03BFA41A019
:1025300001F06AFA142001F035FA44A001F064FABF
:10254000282001F02FFA47A001F05EFA3C2001F0AC
:1025500029FA4AA001F058FAEF2001F04BFA4CA0FA
:1025600001F052FA4B48006802F0D8F9039002F0EB
:102570005DF807460022484B01F076FC054601F065
:102580008DFB04464348006802F0C8F9039002F04E
:102590004DF807460022414B01F066FC054601F06C
:1025A0007DFB81464946204602F000FA83463948C1
:1025B000006802F0B3F9019002F038F80022364BBF
:1025C000CDE9020101F050FC07460022344B01F036
:1025D00043FF054601F062FB824621460D2000F0D4
:1025E00081FF4946202001F003F85946352000F0CC
:1025F00079FF5146482001F093F82A48007840B10D
:102600000420294908700120094908700020254943
:1026100008702648007840B1002024490870062040
:1026200021490870012002490870BDE8FF9F0000A1
:102630003A010020CDE0EFF0FFE6E5EDE8E52020EF
:10264000202020202020C22000000000D2EEEA201E
:10265000C0C1202020202020202020202020C02099
:1026600000000000CCEEF9EDEEF1F2FC202020207D
:10267000202020202020C2F200000000D2E5ECEF54
:10268000E5F0E0F2F3F0E020202020202020000000
:102690004300000000000020000059400000694095
:1026A00000001840AA0200203B010020AC020020DC
:1026B0002DE9F84F5D48007800281BD000F0ABFEF4
:1026C00000205A49087001F06DF959A001F09CF9F9
:1026D000142001F067F95CA001F096F9282001F0C0
:1026E00061F95FA001F090F93C2001F05BF962A074
:1026F00001F08AF96648006802F010F9834601F09B
:1027000095FF07460022634B01F0AEFB054601F042
:10271000C5FA04465E48006802F000F9834601F0FD
:1027200085FF074600225C4B01F09EFB054601F049
:10273000B5FA81464946204602F012F80090544806
:1027400000680321B0FBF1F201FB120010B1DFF8C9
:102750004CA101E0DFF848A14946032000F0C2FE89
:10276000484601F063FF07464E4A4F4B01F074FEA6
:10277000054601F093FA83465946172000F0B2FE51
:10278000484601F053FF0746464A474B01F0B8FA66
:10279000054601F083FA834659462B2000F0A2FE3D
:1027A000204601F043FF05463E4A3F4B01F0A8FAA0
:1027B000074601F073FA834659460D2000F018FFD2
:1027C000204601F033FF0546364A374B01F044FE00
:1027D000074601F063FA83465946212000F008FFBE
:1027E0002146352000F004FF3F20009900F07AFEDA
:1027F0005146492000F076FE2C48007840B1032075
:102800002B490870012009490870002027490870E9
:102810002848007840B10020264908700320244948
:102820000870012001490870BDE8F88F3A010020C6
:102830004961202020202020412055612020202097
:10284000202020420000000049622020202020207B
:10285000412055622020202020202042000000003E
:102860004963202020202020412055632020202063
:102870002020204200000000522020202020202084
:10288000CEEC2046202020202020487A00000000A6
:10289000000000200000594000006940000048424C
:1028A000666648429A9999999999B93FAA02002077
:1028B0003B010020AC02002070B5FE4800780028E3
:1028C00062D00020FB49087000F0A5FDFA490978A4
:1028D00001EB81018906080E01F064F8F7A001F010
:1028E00093F800244EE0F6480078F3490978401A3E
:1028F0002044C5B204EB8401012202EB8101C8B27D
:1029000001F050F805EB8501EE4A02EB81014868C1
:1029100001F07AF804EB8401092202EB8101C8B2CC
:1029200001F040F805EB8501E64A02EB8101087BE6
:1029300000F08CFFE4A001F067F805EB8501E14AA7
:1029400002EB8101487B00F081FF04EB84010F2240
:1029500002EB8101C8B201F025F805EB8501D94AE7
:1029600002EB8101487C00F071FFD8A001F04CF827
:1029700005EB8501D34A02EB8101087C00F066FF7C
:10298000601CC4B2042CAEDBD148007800287DD096
:102990000020CF490870CA480078401CC849087018
:1029A000C5480078401CC4490870084600780328D0
:1029B00004DD032008700120C6490870C048007873
:1029C000C549097888420CDB0020BD490870BA4926
:1029D0000870C04908703C2000F0E4FFBFA001F07F
:1029E00013F8BC480078002861D0B349097801EB9E
:1029F00081018906080E00F0D5FFB0A001F004F8AF
:102A00000020B449087000244EE0AD480078C01E94
:102A10002044C5B204EB8401012202EB8101C8B25B
:102A200000F0C0FF05EB8501A64A02EB8101486872
:102A300000F0EAFF04EB8401092202EB8101C8B235
:102A400000F0B0FF05EB85019E4A02EB8101087B97
:102A500000F0FCFE9CA000F0D7FF05EB8501994A31
:102A600002EB8101487B00F0F1FE04EB84010F22B0
:102A700002EB8101C8B200F095FF05EB8501914A98
:102A800002EB8101487C00F0E1FE00E07DE08FA0D8
:102A900000F0BAFF05EB85018A4A02EB8101087C50
:102AA00000F0D4FE601CC4B2042CAEDB6DE08249A1
:102AB000097801EB81018906080E00F073FF7FA001
:102AC00000F0A2FF7C48007800280BDD7A490978E5
:102AD000491E01EB81018906080E00F063FF7FA00B
:102AE00000F092FF00244EE07548007872490978A2
:102AF000401A2044C5B204EB8401012202EB81019B
:102B0000C8B200F04FFF05EB85016E4A02EB810170
:102B1000486800F079FF04EB8401092202EB81018F
:102B2000C8B200F03FFF05EB8501664A02EB810168
:102B3000087B00F08BFE64A000F066FF05EB8501CA
:102B4000604A02EB8101487B00F080FE04EB8401C7
:102B50000F2202EB8101C8B200F024FF05EB8501D2
:102B6000584A02EB8101487C00F070FE57A000F04B
:102B70004BFF05EB8501534A02EB8101087C00F015
:102B800065FE601CC4B2042CAEDB554800780028FA
:102B90007DD00020524908704948007880B94E48DD
:102BA0000078401E46490870032043490870002001
:102BB0004849087000F0F6FE48A000F025FF14E038
:102BC0003D480078002805DD3B480078401E3A4922
:102BD000087005E000203849087001203D49087060
:102BE00037480078401E364908703A480078002877
:102BF00079D03149097801EB81018906080E00F08E
:102C0000D1FE2EA000F000FF002032490870002401
:102C10004DE02B4800782044C5B204EB840101222A
:102C200002EB8101C8B200F0BDFE05EB8501254A2B
:102C300002EB8101486800F0E7FE04EB8401092201
:102C400002EB8101C8B200F0ADFE05EB85011D4A23
:102C500002EB8101087B00F0F9FD1BA000F0D4FE1F
:102C600005EB8501174A02EB8101487B00F0EEFD80
:102C700004EB84010F2202EB8101C8B200F092FE46
:102C800005EB85010F4A02EB8101487C00E09CE0E6
:102C900000F0DCFD0DA000F0B7FE05EB8501094A50
:102CA00002EB8101087C00F0D1FD601CC4B2042C51
:102CB000AFDB8AE03A010020380100203E0000002E
:102CC00037010020280300203A0000002E000000F9
:102CD000A902002039010020924C000820000000C9
:102CE000A8020020FFE74549097801EB8101890628
:102CF000080E00F057FEAFF23C0000F085FE4048A1
:102D0000007803280CDA3D490978491C01EB810160
:102D10008906080E00F046FEAFF2400000F074FE97
:102D2000002450E03748007834490978401A20449C
:102D3000C5B204EB8401012202EB8101C8B200F0AC
:102D400031FE05EB8501304A02EB8101486800F055
:102D50005BFE04EB8401092202EB8101C8B200F0A2
:102D600021FE05EB8501284A02EB8101087B00F07A
:102D70006DFDAFF2AC0000F047FE05EB8501224A85
:102D800002EB8101487B00F061FD04EB84010F221E
:102D900002EB8101C8B200F005FE05EB85011A4A7D
:102DA00002EB8101487C00F051FDAFF2E00000F041
:102DB0002BFE05EB8501144A02EB8101087C00F033
:102DC00045FD601CC4B2042CACDB1048007838B15F
:102DD00001200F4908700F49087000200B49087046
:102DE0000D48007840B100200B49087007200849C1
:102DF000087001200749087070BD000038010020EC
:102E0000350100203701002028030020AA020020FD
:102E10003B0100203A010020AC02002010B504461E
:102E20003E48007800285FD000F0F5FA00203B49CA
:102E3000087000F0B7FD3AA000F0E6FD142000F0A5
:102E4000B1FD04EB8401394A02EB8101886800F08E
:102E5000DBFD282000F0A6FD35A000F0D5FD3C20CC
:102E600000F0A0FD04EB8401304A02EB8101487CB4
:102E700000F0ECFC3E2000F095FD2FA000F0C4FD1A
:102E800004EB8401294A02EB8101087C00F0DEFC9E
:102E900029A000F0B9FD04EB8401244A02EB810172
:102EA000887C00F0D3FC25A000F0AEFD04EB84018B
:102EB0001E4A02EB8101087B00F0C8FC20A000F054
:102EC000A3FD04EB8401194A02EB8101487B00F069
:102ED000BDFC1BA000F098FD04EB8401134A02EB3B
:102EE0008101887B00F0B2FC1648007840B10420D4
:102EF000154908700120094908700020114908701F
:102F00001248007840B100201049087004200E4992
:102F1000087001200149087010BD00003A0100202E
:102F2000D1EEE1FBF2E8E53A0000000028030020C2
:102F3000C2F0E5ECFF3A00002D0000002000000088
:102F40003A000000AA0200203B010020AC02002051
:102F500008B508490968C9084FF47A72B1FBF2F163
:102F60004143009100BF00BF00994A1E0092002912
:102F7000F9D108BDBC020020014600BF080900EBE2
:102F80008000420001F00F001044C0B270470146BB
:102F9000002203E0521CA1F10A00C1B20A29F9D2B1
:102FA000100741EA106070472DE9F0470646884651
:102FB000002700240025A146F77B747BB57B00BF6A
:102FC00040E0012C0BD0032C09D0052C07D0072C96
:102FD00005D0082C03D00A2C01D00C2C0CD11F2DAD
:102FE00001D26D1C2CE00C2C02D0641C012527E0C2
:102FF000012401257F1C23E0042C05D0062C03D0DE
:10300000092C01D00B2C06D11E2D01D26D1C17E00E
:10301000641C012514E0022C12D11C2D01D26D1C60
:103020000EE01C2D08D1B8B200F053F808B16D1CA9
:1030300006E0641C012503E01D2D01D1641C01255F
:1030400009F10109C145BCD3F7737473B573EAB2D2
:10305000E1B2384600F07CF83073BDE8F08770B517
:1030600004460025FDF744FC054607E0FDF740FC5B
:10307000401BB0F57A7F01D9032070BD20684068FD
:1030800000F020000028F1D02068406840F01000D7
:10309000216848600020F0E770B5044600252068EC
:1030A000406820F0100021684860FDF721FC0546CB
:1030B00007E0FDF71DFC401BB0F57A7F01D9032026
:1030C00070BD2068406800F020000028F1D000208A
:1030D000F6E7014601F0030008B1002070476420C4
:1030E000B1FBF0F200FB121008B10120F6E74FF43B
:1030F000C870B1FBF0F200FB121008B90120EDE737
:103100000020EBE70146002200230868006A82B233
:103110000868406A83B243EA0240704730B501460E
:1031200000220023002400200D68AD69AAB20D68BA
:10313000ED69ACB20D68AD69ABB29A4205D00D68CD
:10314000ED6963F31F45284601E044EA024030BDC3
:10315000F0B504460B460021002504F5FA61032B67
:103160001BD2C3EBC30000EB03100926B0FBF6F043
:103170001044001D4618481E06EB90066427B0FB5D
:10318000F7F0361A481EBF00B0FBF7F030440726B0
:10319000B0FBF6F706FB17051AE0C3EBC30000EB24
:1031A00003100926B0FBF6F01044001D084400EBA4
:1031B00091006426B1FBF6F6801B4FF4C876B1FB94
:1031C000F6F63044801E0726B0FBF6F706FB17051F
:1031D000E8B2F0BD70B504460D4600262046FFF764
:1031E0003EFF08B101260AE0280C21680862A8B257
:1031F000216848622046FFF74FFF00B101263046A4
:1032000070BD70B504460D4600262046FFF727FF27
:1032100008B101260AE0280C21688861A8B221685B
:10322000C8612046FFF738FF00B10126304670BD67
:10323000704710B5FDF762FB10BD00B595B02821B1
:103240000BA8FDF703F8142106A8FCF7FFFF1821CF
:103250006846FCF7FBFF09200B904FF480300C9080
:1032600000200D9001200F90119002201290C103B8
:1032700013914FF4402114910BA8FDF743FE08B1C0
:10328000FDF71DF90F2006900220079000200890FE
:103290004FF48060099000200A90022106A8FDF7F3
:1032A0001BFD08B1FDF70BF90120009040020190D1
:1032B0006846FDF779FC08B1FDF701F915B000BDCE
:1032C0007047000010B50268294B98420ED0294B78
:1032D00098420BD0B0F1804F08D0274B984205D0D0
:1032E000264B984202D0264B984203D122F070021E
:1032F0004B681A431E4B984220D01E4B98421DD05B
:10330000B0F1804F1AD01C4B984217D01B4B9842FB
:1033100014D01B4B984211D01A4B98420ED01A4B26
:1033200098420BD0194B984208D0194B984205D0BF
:10333000184B984202D0184B984203D122F44072A5
:10334000CB681A4322F080034C6943EA040202600E
:103350008B68C3620B688362054B984202D0054BB1
:10336000984201D10B6903630123436110BD000042
:10337000002C0140003401400004004000080040DF
:10338000000C0040004C014000500140005401403E
:1033900000180040001C00400020004030B50C46E2
:1033A000816821F47F4142EA032525432943816056
:1033B00030BD0A46816821F0700142F007031943CD
:1033C0008160704730B50B461446026A056A25F0E5
:1033D00001050562816921F0F00141EA041122F042
:1033E0000A021A438161026230BD30B50B461446B1
:1033F000026A056A25F010050562816921F47041B1
:1034000041EA043122F0A00242EA03128161026221
:1034100030BD00BFFEE710B5012000F0E1FB4FF426
:10342000BE6000F021FC10BD70B504460D4644F0AE
:10343000040141EA050000F0D3FB252000F014FC54
:1034400070BD70B504460D46164644F02001294370
:1034500041EA060000F0C4FB252000F005FC70BD29
:1034600070B504460D46164644F00801294341EA6A
:10347000060000F0B5FB252000F0F6FB70BD10B58E
:10348000044604F07F0141F0800000F0A9FB2520F4
:1034900000F0EAFB10BD000010B500224FF480518F
:1034A0000F48FDF71FFA0F20FDF756F800220821FC
:1034B0001020FFF7C6FF0520FDF74EF8FFF7ABFF22
:1034C0000520FDF749F800210220FFF7ADFF052098
:1034D000FDF742F8002211460420FFF7C1FF10BD9E
:1034E000001001402DE9F05F834689464FF0000A45
:1034F000584600F057FA484601F098F80546344A15
:10350000344B00F073FF01D2DFF8CC90484601F055
:103510008DF80546314A324B00F02EFE01D2DFF81D
:10352000C490484601F082F8074600222E4B00F076
:103530005FFE054600F0F0FD0446002C02DA64420E
:103540004FF0010A0A2094FBF0F100FB114004281F
:1035500000DD0A340A2094FBF0F4642094FBF0F0C0
:1035600022498870642094FBF0F100FB11400A218D
:1035700090FBF1F01D4948700A2094FBF0F100FB2C
:1035800011401A4908700846807828B1897830318E
:10359000C8B200F047FB09E0BAF1000F03D02D20BC
:1035A00000F040FB02E0202000F03CFB0F4949788E
:1035B0003031C8B200F036FB2E2000F033FB0B494F
:1035C00009783031C8B200F02DFBBDE8F09F000053
:1035D0009A99999999F95840CDCCC742CDCCCCCC89
:1035E000CCCC23C066661EC1000059401C030020DD
:1035F0002DE9F05F834689464FF0000A584600F0F7
:10360000D1F9484601F012F805463D4A3D4B00F01D
:10361000EDFE01D2DFF8F090484601F007F80546CC
:103620003A4A3B4B00F0A8FD01D2DFF8E89048464B
:1036300000F0FCFF07460022374B00F0D9FD05469D
:1036400000F06AFD0446002C02DA64424FF0010AE1
:103650000A2094FBF0F100FB1140042800DD0A343D
:103660000A2094FBF0F44FF47A7094FBF0F02B49AD
:10367000C8704FF47A7094FBF0F100FB11406421A4
:1036800090FBF1F025498870642094FBF0F100FB79
:1036900011400A2190FBF1F0204948700A2094FB68
:1036A000F0F100FB11401D4908700846C07828B1B0
:1036B000C9783031C8B200F0B5FA09E0BAF1000FAC
:1036C00003D02D2000F0AEFA02E0202000F0AAFA8C
:1036D000124989783031C8B200F0A4FA2E2000F0E7
:1036E000A1FA0E4949783031C8B200F09BFA0B4973
:1036F00009783031C8B200F095FABDE8F09F0000BB
:103700008FC2F5285CFF5840E1FAC7427B14AE47F0
:10371000E1FA23C00AD71FC100408F401C030020DC
:103720002DE9F05F834689464FF0000A584600F0C5
:1037300039F9484600F07AFF05464FF033323C4BEA
:1037400000F054FE01D2DFF8EC90484600F06EFF26
:103750000546394A394B00F00FFD01D2DFF8E09001
:10376000484600F063FF07460022364B00F040FD5C
:10377000054600F0D1FC0446002C02DA64424FF00A
:10378000010A0A2094FBF0F100FB1140042800DD3F
:103790000A340A2094FBF0F44FF47A7094FBF0F0B2
:1037A0002949C8704FF47A7094FBF0F100FB114086
:1037B000642190FBF1F024498870642094FBF0F1BF
:1037C00000FB11400A2190FBF1F01F4948700A20CC
:1037D00094FBF0F100FB11401B4908700846C078CB
:1037E00028B1C9783031C8B200F01CFA09E0BAF14A
:1037F000000F03D02D2000F015FA02E0202000F089
:1038000011FA114989783031C8B200F00BFA0E492B
:1038100049783031C8B200F005FA2E2000F002FAE3
:10382000094909783031C8B200F0FCF9BDE8F09FD1
:10383000333F8F409AF979449A99999999F958C0E8
:10384000CDCCC7C2000059401C03002010B504466F
:10385000632C00DD63240A2094FBF0F00A494870D1
:103860000A2094FBF0F100FB1140074908704978E9
:103870003031C8B200F0D6F9034909783031C8B206
:1038800000F0D0F910BD00001C0300202DE9F0412C
:1038900006460D46304600F085F80027B8463E49FA
:1038A000284601F04FF900D23B4D3C49284601F033
:1038B00049F800D2394D0021284601F043F803D2DF
:1038C00085F000454FF00108284601F00BF842F260
:1038D000107190FBF1F032490871284601F002F8AE
:1038E00042F2107190FBF1F201FB12004FF47A7179
:1038F00090FBF1F02A49C870284600F0F3FF4FF41E
:103900007A7190FBF1F201FB1200642190FBF1F05F
:1039100023498870284600F0E5FF642190FBF1F20E
:1039200001FB12000A2190FBF1F01D494870284666
:1039300000F0D8FF0A2190FBF1F201FB12001849B8
:10394000087004241DE01648005D00B93FB1144919
:10395000095D3031C8B200F065F901270FE0B8F118
:10396000000F09D0601E0E49085C08B9601E18B926
:103970002D2000F057F902E0202000F053F9601EDE
:10398000C4B2012CDFDA064909783031C8B200F040
:1039900049F9BDE8F0810000804FC347003C1CC6D8
:1039A0001C03002070B5044611480470142C03DA7F
:1039B00004F18000C5B216E0142C05DB282C03DAD4
:1039C00004F1AC00C5B20EE0282C05DB3C2C03DA78
:1039D00004F16C00C5B206E03C2C04DB502C02DA8A
:1039E00004F19800C5B22846FFF749FD70BD0000FC
:1039F0000C00002010B50446204600F013F92520E5
:103A000000F032F910BD000070B50546002420E03A
:103A100013480078142802D1C020FFF730FD104869
:103A20000078282802D19420FFF729FD0C4800785F
:103A30003C2802D1D420FFF722FD2E5D0949885D84
:103A4000FFF7D8FF06480078401C05490870601C45
:103A5000C4B24F2C02DC285D0028D9D170BD000013
:103A60000C0000200D00002002480068C0F3022076
:103A7000704700000CED00E010B5002804DB0A07D9
:103A8000130E054A135406E00A07140E034A00F009
:103A90000F031B1FD45410BD00E400E018ED00E03C
:103AA000FCF738FFFFF7C9FBFEF744F8FEF71EF9F5
:103AB000FEF7E0F84048FDF74DFF4FF47A70FCF751
:103AC0004BFDFFF7E9FCFCF7FDFC0A20FCF744FD89
:103AD000FEF716F80020394908703949087039494D
:103AE000087039490870394908703949087001204F
:103AF00038490870384908700020384908605AE091
:103B0000FCF758FC6320FCF727FD34480068401C94
:103B10003249086008460068B0F5966F01D9002068
:103B20000860FDF7F7FF2C480078082841D2DFE84D
:103B300000F040040C141C242E36FEF713F925481F
:103B4000007808B1FDF7EEFF34E0FEF77DF921487B
:103B5000007808B1FDF7E6FF2CE0FEF7DBFC1D481E
:103B6000007808B1FDF7DEFF24E0FEF7A5FE194856
:103B7000007808B1FDF7D6FF1CE010480078FEF78A
:103B8000EBFB1448007808B1FDF7CCFF12E0FEF71C
:103B90008FFD1048007808B1FDF7C4FF0AE00A481D
:103BA0000078FFF73BF90B48007808B1FDF7BAFF42
:103BB00000E000BF00BFA3E7C002002034010020E6
:103BC0003501002036010020370100203801002097
:103BD000390100203A0100203B01002000000020B4
:103BE00010B50446002220210B48FCF77BFE312053
:103BF00000F03AF809480460012281140848FCF7F3
:103C000071FE002000F030F800224FF4805104488B
:103C1000FCF768FE10BD0000001801400C140140C4
:103C20000010014010B50446012220210B48FCF78A
:103C300059FE312000F018F809480460012281146F
:103C40000848FCF74FFE002000F00EF800224FF469
:103C500080510448FCF746FE10BD000000180140EA
:103C60000C1401400010014000210B4A12685162FF
:103C7000891E094A1268116106E007490968096945
:103C800001F0010101B104E003490968496A814278
:103C9000F3D300BF70470000C002002021F00042B3
:103CA000A2F16052B2F5801F01F0004328BFD2F1AB
:103CB0007F6C0BD95FEA001C43EAC20242EB5070F2
:103CC00018BF704728BF20F001007047B2F5801F71
:103CD000BCBF184670474FEA410C1CF5001F02D2CA
:103CE000084600F02ABF70B500F02CFB00000089E8
:103CF000FFF7F6BF4FF00040A0F5800070470000CE
:103D000010B591EA030F48BF83F0004300F1AC8384
:103D1000841A71EB030C05D2121943EB0C03001B40
:103D200061EB0C01DFF824E14FEA1154A4EB135CC2
:103D30001EEA430F18BF9EEA445F73D023EA0E03C6
:103D4000DCF1200E21EA045143F4801332D322FA2D
:103D50000CFE10EB0E0023FA0CFE41EB0E01CCF131
:103D6000200E03FA0EFE10EB0E0051F10001B1F52A
:103D7000801FCCF1200E32D201EB045112FA0EF268
:103D8000BDE8104058BF7047401C38BF5FEA420290
:103D900018BF7047002814BF20F0010041F1000156
:103DA0004FEA410313F5001F38BF7047A1F1C0412E
:103DB00000F016BB012A43EB0302ACF1200CDCF14E
:103DC0001F0E32BF4FF0000E23FA0CF310EB03006E
:103DD00041EB0451B4EB115FD0D0A1EB045101F5DC
:103DE000801149085FEA300001EB04510ED350F115
:103DF000000038BF12FA0EFE08D1BDE81040C9E736
:103E0000401C38BF5FEA4202CAD1C3E7BDE8104098
:103E10004FEA410313F5001F38BF7047A1F1C041BD
:103E200000F0DEBA9EEA445F08D011EA5E0FBDE8FA
:103E3000104004BF01F0004100207047BDE8104071
:103E400070B500F07FFA00BF64FBBE3E0000E0FFEB
:103E5000491058BFC1F140415B1058BFC3F1404306
:103E60008B42EFF3008070472DE9C04130B4DFF89A
:103E7000A0C23CEA111418BF3CEA131400F0EC8015
:103E800081EA03051CEA111444EAD57418BF1CEA40
:103E9000131500F0C780A4EB05044FF0004545EA78
:103EA000C12145EAC32341EA505143EA525304F188
:103EB0007F74994204F500344FEAC0204FEAC222D1
:103EC00008BF904200F09C804FEA13650FF2401645
:103ED000765D4FEA134506FB05F7C7F1807706FBD1
:103EE00007F74FEAD737A7FB03687642C8F5803853
:103EF000A7FB06CE38BFA8F1010807FB08E64FF084
:103F0000000EA6FB028CE6FB03CEDCF1000CCEF12A
:103F1000004E38BFAEF1010EA6FB0C584FF0000763
:103F20004FF00005E6FB0E87A1FB08C6A0FB07CEFD
:103F300016EB0E0645F10005E1FB076515F1E04EB5
:103F40007EBFA4F580345FEA46066D4116F1800716
:103F500045F100054FEA17274FEA066647EA05676D
:103F6000A6F1DE46B6F1805F4FEA15251FD9384627
:103F700024F0010C05EBC471BCF1FE6F01EB0C11D8
:103F800002D8F0BCBDE8008124425CBF01F5801E70
:103F90009EEAC47F02D4F0BCBDE80081244238D43C
:103FA000F0BCA1F1C041BDE8004100F019BA4FEAF0
:103FB000D22242EA43524FEAD323A7FB02864FEABA
:103FC000D02040EA415007FB03661EEA0E0F4FEA7D
:103FD000D12105FB026658BFA6EB0056B6EB005692
:103FE0004FEA520E4EEAC37E18EB0E0E56EB530EFE
:103FF000BDD518EB02085E417F1C55F10005B6E700
:104000004FF480154FF000074FF000064FF0000806
:10401000ADE7F0BC4FF0000001F1C04101F00041FC
:10402000BDE8008111EA0C1F0CEA131500D00CE06A
:1040300013EA0C1F00F025804FF00000F0BC81EA6D
:10404000030101F00041BDE80081F0BCBDE8004182
:1040500081EA030100F0C4B9F0BCBDE8004170B5CD
:1040600000F070F9097EFC3E00F007B881EA030118
:104070004FF0000001F00041704781EA030100F0B9
:10408000AFB9F0BCBDE800414FF0000021497047D6
:10409000FFFDFBF9F7F5F4F2F0EEEDEBE9E8E6E40D
:1040A000E3E1E0DEDDDBDAD8D7D5D4D3D1D0CFCD94
:1040B000CCCBCAC8C7C6C5C4C2C1C0BFBEBDBCBBCD
:1040C000BAB9B8B7B6B5B4B3B2B1B0AFAEADACABC8
:1040D000AAA9A8A8A7A6A5A4A3A3A2A1A09F9F9EA2
:1040E0009D9C9C9B9A999998979796959594939354
:1040F000929191908F8F8E8E8D8C8C8B8B8A8989EB
:10410000888887878685858484838382828181806D
:104110000000FF070000F87F4FEA41034FEA5353C6
:10412000A3F58063D3F11E03C8BFD3F1210C0CDDCE
:104130004FF0004242EAC12242EA505232FA03FCF6
:104140008CEAE17CACEBE1707047102BC4BF00201F
:10415000704703F5787CBCF1FF3F04D06FF000425C
:1041600082EA2100704770B500F0ECF84992248093
:1041700000207047F2E7000051EA030C17D41CF549
:10418000801F58BFBCF5801F00F10680994218BF00
:10419000704708BF9042704707D711F5801F58BF7E
:1041A00013F5801F19D499427047894270471CF556
:1041B000801F08D5BCF5801FF7D58B4218BF70470C
:1041C00008BF824270474FF4001C1CEB410F38BF00
:1041D0001CEB430F01D28B42704770B500F0B2F870
:1041E000922449004FF000514FF08053FFF730BE4A
:1041F000DFF848C170B51CEA111E1EBF1CEA13157A
:104200009EEA0C0F95EA0C0F00F06F8081EA030420
:1042100023EA4C134EEAD47E21EA4C1141F480117A
:1042200043F48013AE44A1FB024CA0FB0365AEF146
:104230007F7E361955EB0C05A1FB034C4CF10003B6
:10424000A0FB021C16EB0C06654153F1000309426A
:1042500018BF46F0010613F4007F0BD14FEA03317B
:104260004FEA0530340341EA155140EA16506FF029
:1042700003020AE04FEAC3214FEAC520F40241EAF3
:10428000555140EA56506FF0020202EB2E4201EB0C
:10429000025585EACE710AD05FEA440C18BF24F0BB
:1042A000004450F1000041F1000120EAD47040F2D6
:1042B000FE7C624500D270BDA84214BF4FF080441E
:1042C0004FF04044002E08BF0024BEF1806FA8BF0D
:1042D000A1F1C041BDE8704080F282804FF0000043
:1042E00001F1C04101F0004170479EEA0C0F0CEA59
:1042F000131518BF95EA0C0F06D04FF0000081EAA5
:10430000030E0EF0004170BD00F01CF88900013E64
:1043100000F007B800F009B84FEA430C5FEA5C5CB4
:1043200008D081EA030100F05BB84FEA410C5FEA74
:104330005C5CF6D14FF00000014970470000FF07B8
:104340000000F87F0EF1020E2EF0030E5EF8046BF3
:10435000364205D4012A43EB030515F5001F12D898
:10436000012841EB010C1CF5001F0CD80ED14FEABF
:10437000D17C15F5001F0CEB4C0C0CF1020C08BFA6
:104380004CEBD37C04E04FF0080C01E04FEAD37C07
:104390000CEB4C0526FA05F606F00706B6F1040C00
:1043A00006D20EEB860CBDE870404CF0010C604765
:1043B000DFE80CF0090B02024FF000414FF0000063
:1043C000A1F5002170BD19461046012851EB0104EA
:1043D00018BFD4F5001484BF002001F0004170BD67
:1043E0000808A0F500114FEA3101704753EA010CAB
:1043F00017D41CF5801F58BFBCF5801F00F1068044
:104400008B4218BF704708BF8242704707D713F529
:10441000801F58BF11F5801F19D48B4270479B42F3
:1044200070471CF5801F08D5BCF5801FF7D5994251
:1044300018BF704708BF904270474FF4001C1CEB38
:10444000430F38BF1CEB410F01D2994270470FB4A4
:104450000CBC03BCFFF7C1BE10B591EA030F48BF07
:1044600083F000433FF554AC841A71EB030C07D280
:1044700012198CF0004C43EB0C03001B61EB0C0198
:10448000DFF8A4E14FEA1154A4EB135C1EEA430FDA
:1044900018BF9EEA445F00F0B08023EA6E035242E8
:1044A00021EA0451C3EB6E0338BF5B1EDCF1200E22
:1044B00025D322FA0CFE10EB0E0043FA0CFE41EB62
:1044C0000E01CCF1200E03FA0EFE10EB0E0051F19E
:1044D0000001CCF1200E29D412FA0EF201EB0451A6
:1044E000BDE8104058BF7047401C1CBFB2F1004FE0
:1044F000704700280CBF491C20F00100704712EBE8
:10450000020E43EB030218BF4FF0010E4EEA4202C7
:10451000ACF1200CDCF11E0E54D943FA0CFE10EB6A
:104520000E0051F1FF31CCF11E0ED5D50EF1010E6A
:1045300012FA0EFE404141EB010101EB445C5FEADF
:104540005C5C10D910EBDE7001EB045138BFBEF19A
:10455000004FBDE8104018BF704700280CBF491C31
:1045600020F00100704730D24FEAD42C11F5001131
:1045700024F400641BD0B1FA81F20B3AA41AA41EF1
:10458000D2F12003914030FA03F31943904001EB3C
:10459000CC71002C01EB0451BDE81040A8BF70475E
:1045A00001F1C0414FF0000001F000417047B0FA46
:1045B00080F310FA03F100D110BDE41A173C48054E
:1045C000C90AE4E701EB045110BD491001EB0451A5
:1045D000BDE810404FEA300002E04FF000017047A4
:1045E0004A0008BF0042F8D0B2F5001F28BF70474C
:1045F00001F000414FF0000070479EEA445F07D091
:1046000011EA5E0FBDE8104004BF00210020704792
:10461000BDE8104070B5FFF795FE00BF40DFF63EE5
:1046200083F00041104670470000E0FF43004FEA6E
:10463000D30C4FEA3C0C43401FBF40070CF16051C4
:1046400013F0FE4F70471CF0006F03D100200CF0F8
:10465000004170470CF0004343EA507010B540EA47
:10466000CC0000F024FA00BF000000924FEA0001E5
:10467000FFF7B6BE4FF000414FF00000A1F500215A
:104680007047000090EA010F48BF81F0004100F13F
:104690009282421A3CBF801A89184FEAD0524FF0DA
:1046A0007F4C1CEA410FA2EBD15318BF9CEA026F6A
:1046B00000F03B804FF0004C4CEA00204CEA012116
:1046C00021FA03FC10EB0C0C1ED202F1FF325FEA60
:1046D0001C2040EBC25038BF70471CF07F0F4FEAE0
:1046E000400C18BFBCF17F4F38BF7047C3F12003A7
:1046F000994008BF20F00100BCF17F4F38BF7047E0
:10470000A0F1C04000F019BA4FEA3C00000A40EBAB
:10471000C25028BF1CF0FF0F4FEA400CE6D018BF74
:10472000BCF17F4F38BF7047EAE79CEA026F05D0C3
:1047300010EA5C0F08BF00F00040704710B500F0B1
:10474000B6F900BF64FBBE3E401058BFC0F1404008
:10475000491058BFC1F140418142EFF300807047DA
:104760004FF47F0C1CEAD0121EBF1CEAD11392EA50
:104770000C0F93EA0C0F00F0858090EA010F48BF00
:1047800042F4807240F4000C41F400002CF07F41B0
:1047900020F07F4000B58142A2EB03020FF2081C1B
:1047A000ACEB504EC0F100009EF800E04FEA4E0E18
:1047B00000FB0EFC38BF49004FEA2C1C02F5FA0240
:1047C0000CFB0EF34FEACE1E4FEA112C4FEAC1212B
:1047D0000EEB635E42EB22420EFB0CFC4FEA1C53D5
:1047E00000FB03114FEA112C4FEA01310EFB0CFCC8
:1047F0004FEADC4C00FB0C11C14228BF09184CEBFE
:1048000003335DF804EB10EB410143EBC250B2F50A
:104810007C0F38BF704729D512F0F00F1CBF00F194
:10482000C04000F000407047008182838485868705
:1048300088898B8C8D8E8F919293959697999A9C5F
:104840009D9FA0A2A3A5A7A8AAACAEB0B2B3B5B7CE
:10485000B9BCBEC0C2C5C7C9CCCED1D4D7D9DCDFA4
:10486000E2E6E9ECF0F3F7FAFE0000004FEA400C54
:104870000CF1807CBCF17E4F28BF7047B0F1C04086
:1048800000F05BB990EA010F0CEAD11348BF42F483
:104890008072624538BF634507D213F47F0F16D08C
:1048A00080EA010000F00040704710B500F0FFF80A
:1048B000097EFC3E00F005B880EA010000F00040EF
:1048C000704780EA010000F0004000F036B912F4B1
:1048D0007F0F04BF0248704780EA010000F02DB945
:1048E0000000C07F41000B0ED3F19E0208D950F4A6
:1048F00000034FEA032323FA02F048BF4042704707
:1049000010B500F0D4F800BF499224800020704711
:104910006FF0004282EA200070470000B0FA80F396
:1049200010FA03F2C3F19D030AD0D90501EB12205E
:10493000530638BF704700F1010008BF20F00100A6
:104940007047000050EA010C00F113801CF5000FC5
:1049500058BFBCF5000F01D48842704707D710F547
:10496000000F58BF11F5000F15D4884270478942D7
:1049700070471CF5000F04D5BCF5000FF7D5814238
:1049800070474FF0807C1CEB400F38BF1CEB410F91
:1049900001D28142704710B500F089F89224490095
:1049A0004FF000504FF08051FFF7CEBE4FF47F0C18
:1049B0001CEAD0121EBF1CEAD11392EA0C0F93EA34
:1049C0000C0F00F0478090EA010F48BF42F480725C
:1049D0004FF0004C4CEA00204CEA012102EB0302AC
:1049E000A0FB0113A2F50002002918BF43F0010348
:1049F0005B0028BF4FEA330342EB22425FEA132CED
:104A00004CEBC2502EBFBCEB436FB2F57C0F70472E
:104A10004FEA036CBCF1004F08BF20F00100B2F573
:104A20007C0F38BF70470BD582F0FF0212F5803F34
:104A3000C8BF704700F1C040D8BF00F000407047C9
:104A400000F5000C5FEA4C0C48BF7047B0F1C04065
:104A500000F073B890EA010F0CEAD11348BF42F49A
:104A60008072624538BF634504D280EA010000F0DD
:104A70000040704710B500F01AF800BF8900013EF1
:104A800000F007B800F009B85FEA410C5FEA1C6C5F
:104A900008D080EA010000F050B85FEA400C5FEAFD
:104AA0001C6CF6D14FF00040A0F5800070470EF16D
:104AB000020E2EF0030E5EF8044B244204D44FEA9B
:104AC0004102B2F17F4F11D84FEA4003B3F17F4F5B
:104AD0000CD80ED14FEAD07CB2F17F4F0CEB4C0CCE
:104AE0000CF1020C08BF4CEBD17C04E04FF0080C39
:104AF00001E04FEAD17C0CEB4C0324FA03F404F000
:104B00000704B4F1040C06D20EEB840CBDE810408F
:104B10004CF0010C6047DFE80CF0070802024FF090
:104B20000040A0F5800010BD0846420018BFD2F139
:104B3000807288BF00F0004010BDFF2141EAD050D4
:104B4000C005704751EA000C00F113801CF5000FFE
:104B500058BFBCF5000F01D48142704707D711F54B
:104B6000000F58BF10F5000F15D4814270478942DD
:104B700070471CF5000F04D5BCF5000FF7D588422F
:104B800070474FF0807C1CEB410F38BF1CEB400F8F
:104B900001D28842704780EA010081EA000180EA80
:104BA0000100FFF7F8BE000090EA010F48BF81F056
:104BB00000413FF56EAD421A04D882F00042A0EBEE
:104BC000020011444FEAD0524FF07F4C1CEA410FD3
:104BD000A2EBD15318BF9CEA026F4AD04FF0004CB1
:104BE0004CEA00204CEA012121FA03FCB0EB0C0C4A
:104BF0000FD412F0FE0F36D05FEA4C001DD5001224
:104C000040EBC25038BF70471CF03F0F18BF7047D1
:104C10000BE0A2F101025FEA1C2040EBC25038BF5A
:104C200070471CF07F0F18BF7047C3F120039940F5
:104C300014BF401E20F00100704780084FEA122385
:104C400008BF7047B0FA80FCA2EB0C02CCF1280C34
:104C500060FA0CF093EA122F04BF00EBC2507047C9
:104C60004FEAC3707047130A5FEADC1008BF704751
:104C7000F6E79CEA026F04D010EA5C0F08BF002040
:104C8000704710B5FFF713FF40DFF63E81F000409C
:104C900070470A00400100206401002088010020C4
:104CA000AC010020D0010020F401002018020020F7
:104CB0003C02002060020020840200200A0203045B
:104CC00005060708090A0B0C0D0E0F101001020251
:104CD000030405060708090A0B0C0D0E0F1010013E
:104CE00002000000000000000001020304060708A3
:104CF0000900000000010203040000005072657307
:104D00007320627574746F6E204F4B20200000007A
:104D1000507265737320627574746F6E20555020E5
:104D2000200000004275742E4F6B20004275742ED7
:104D3000557020002D2D2D2D2D2D2D2D2D2D2D2D72
:104D40002D2D2D2D2D0000002D2D2D2D2D2D2D0047
:104D5000507265737320627574746F6E20444F5780
:104D60004E0000004275742E44776E00CFE0F0E0F4
:104D7000ECE5F2F02031202020200000CFE0F0E030
:104D8000ECE5F2F02032202020200000CFE0F0E01F
:104D9000ECE5F2F02033202020200000CFE0F0E00E
:104DA000ECE5F2F02034202020200000CFE0F0E0FD
:104DB000ECE5F2F02035202020200000CFE0F0E0EC
:104DC000ECE5F2F02036202020200000CFE0F0E0DB
:104DD000ECE5F2F02037202020200000CFE0F0E0CA
:104DE000ECE5F2F02038202020200000CFE0F0E0B9
:104DF000ECE5F2F02039202020200000CFE0F0E0A8
:104E0000ECE5F2F0203130202020000020202000AE
:104E1000412020004220200063202000C2202000EA
:104E2000CEEC202000000000F1202000E3F0200064
:104E3000504E000800000020C00200006C01000875
:104E400024500008C002002090070000C80100089C
:104E5000E110240102030405060708090A0B0C0DE2
:104E60000E0F101112131415161718191A1B1C1DEA
:104E70001E1F2021220128A225042728292A2B2CA5
:104E80002D2E2F303132333435363738393A3B3CDA
:104E90003D3E3F404142434445464748494A4B4CCA
:104EA0004D4E4F505152535455565758595A5B5CBA
:104EB0005DC75F606162636465666768696A6B6C41
:104EC0006D6E6F707172737475767778797A7B7C9A
:104ED0007D7E7F808182838485868788898A8B8C8A
:104EE0008D8E8F909192939495969798999A9B9C7A
:104EF0009D9E9FA0A1A2A3A4A5A6A7A8A9AAABAC6A
:104F0000ADAEAFB0B1B2B3B4B5B6B7B5B9BABBBC5C
:104F1000BDBEBF41A042A1E0452318144BA74D4898
:104F20004FA8504354A9AA58B3ABACB4ADAE622E4F
:104F30001A612F3EE365B6B7B83030136FBE7063A9
:104F4000BF79E478E5C0C1E6C2C3C4C5C6C713488B
:104F50004D1B0824041A2C041A64041A340413FC8C
:104F60004C1B0810081A500401121C20406C186BCE
:104F7000104E1C472041CDCCCC3D13E53433080105
:104F80001EAE4706427C243A142423803F47C84281
:104F90000AD7233C13F1354308021D606F448C246B
:104FA0007A18486B7A44481321375308031C0CC203
:104FB0009C243A20242BC8C248495021138D3833F1
:104FC00008041E7B14AC41AC243A2824EB20C16CAD
:104FD0003A05471C5547BC242A1C2414808944AC3C
:104FE000606A4748320619341B40CC247A0CB4ABB3
:104FF000A0404852071C0E42DC247A2C24AB4842C5
:10500000FC49C96C8040EC6C51AB20416C52091CCE
:10501000A040FC240A151024F20A32104201132485
:04502000F400000098
:0400000508000131BD
:00000001FF
